:020000040000FA
:10000000480B002021020000290200002B02000002
:100010002D0200002F02000031020000000000004D
:100020000000000000000000000000005901000076
:100030003502000000000000D10100000D020000A8
:100040003B0200003B0200003B0200003B020000BC
:100050003B0200003B0200003B0200003B020000AC
:100060003B0200003B0200003B0200003B0200009C
:100070003B0200003B0200003B0200003B0200008C
:100080003B0200003B0200003B0200003B0200007C
:100090003B0200003B0200003B0200003B0200006C
:1000A0003B0200003B0200003B0200003B0200005C
:1000B0003B0200003B0200003B0200003B0200004C
:1000C0003B0200003B0200003B020000DFF81CD0B6
:1000D00000F006FB00F0A2FB0021034800F0E6FB65
:1000E00000F0AEFBFEE700000C000020480B0020F3
:1000F00080F309887047EFF309807047684680F302
:10010000098804480078C00714BF0220032080F348
:1001100014887047E8150000DFF818C0EFF3058376
:100120001B0618BF6047EFF31483DB0708BF604767
:1001300000DF70474D090000DFF818C0EFF30583BA
:100140001B0618BF6047EFF31483DB0708BF604747
:1001500000DF7047290B0000EFF30980816911F877
:10016000021CF1B990E80F10E047EFF3098C8CE81E
:100170000700144B93E8060091420FD039B12CE9E7
:10018000F00FC1F824C00CB400F03AFF0CBC1A60A8
:10019000D2F824C0BCE8F00F8CF309886FF0020E8F
:1001A000704710B5084A1268914209D8074C54F8B4
:1001B000214090E80F10A047EFF3098C8CE80F0066
:1001C00010BD000038000020EC020000EC0200002E
:1001D00000F0ECFD0C4B93E80600914210D0EFF3D9
:1001E000098C2CE9F00FC1F824C00CB400F008FF12
:1001F0000CBC1A60D2F824C0BCE8F00F8CF309885C
:100200006FF0020E704700003800002000F0BEFFC3
:10021000E0E7000000F06DF800F0B8FFDAE700005A
:100220000648804706480047FEE7FEE7FEE7FEE790
:10023000FEE7FEE7FEE7FEE7FEE7FEE7A9040000B3
:10024000CD00000000BFFEE700BFFEE72DE9F05F34
:100250000546002092469B46884606468146402435
:100260001BE0284641464746224600F02FF85346F9
:100270005A46C01A914110D311461846224600F042
:1002800016F82D1A67EB01084F462246012000217F
:1002900000F00DF817EB00094E41201EA4F10104F7
:1002A000DFDC484631462A464346BDE8F09F202A17
:1002B00004DB203A00FA02F1002070479140C2F1BD
:1002C000200320FA03F3194390407047202A04DBEF
:1002D000203A21FA02F00021704721FA02F3D040BF
:1002E000C2F1200291400843194670470000000007
:1002F00070477047032100F055BB0000FFFFFFFF70
:100300002DE9F047B1480068C0F3016003287CD1B3
:10031000AF48006810F0030006D0012833D002284F
:100320005FD003282ED100E000BFA8480068C0F3CA
:10033000074000F101044FF00201A648D0F8880000
:10034000C0F30E0000F10100A1FB0001A24B4FF031
:10035000000CA0FB037901FB039100FB0C1122466A
:1003600063463846FFF772FF05469C480068C0B2F6
:1003700000F1010422464FF000032846FFF766FF14
:10038000974908605DE091480068C0F3074000F1BC
:1003900001044FF002018F48D0F88800C0F30E002E
:1003A00000F10100A1FB00108E4A4FF0000CA1FBF0
:1003B000027900FB029001FB0C012246634638469D
:1003C000FFF744FF054685480068C0B200F101040C
:1003D00022464FF000032846FFF738FF80490860A7
:1003E0002FE07A480068C0F3074000F101044FF0A5
:1003F00002017848D0F88800C0F30E0000F1010037
:10040000A1FB00124FF4004000E01BE04FF000039E
:10041000A1FB007902FB009001FB03012246384654
:10042000FFF714FF05466D480068C0B200F10104F3
:1004300022464FF000032846FFF708FF684908608E
:1004400000BF2FE06248006810F0030006D00128CA
:1004500010D0022819D0032823D100E000BF5F4844
:100460000068C0B200F101005B49B1FBF0F05C49EB
:10047000086016E059480068C0B200F1010059490F
:10048000B1FBF0F0564908600BE054480068C0B278
:1004900000F101004FF40041B1FBF0F05049086059
:1004A00000BF00BFBDE8F08720204F4908604948E1
:1004B000D0F8A00110F0200F05D000BF4A48006816
:1004C00010F0400FFAD00320444908604FF00000BC
:1004D0004049C1F8A801454908604FF001003C4976
:1004E00008604348434908604FF0AA004249086049
:1004F0004FF0550008604FF00100404908604FF090
:10050000AA003D4908604FF055003249C1F88C00FF
:1005100000BF2E48006810F0806FFAD003203749E2
:1005200008604FF0AA002B49C1F88C004FF055002D
:100530003149086000BF2548006800F04070B0F104
:10054000407FF8D123202E4908604FF0AA002149AE
:10055000C1F8AC004FF055002A4908604FF0010087
:10056000294908604FF0AA00264908604FF055005D
:100570001849C1F8AC0000BF2448006810F4806F2F
:10058000FAD00320204908604FF0AA001149C1F8B1
:10059000AC004FF055001B49086000BF1B480068C5
:1005A00000F44070B0F5407FF8D11948194908604F
:1005B0004FF000000749C1F8C8010846006820F460
:1005C000704040F4804008607047000088C00F40D1
:1005D0000CC10F4000C00F4000093D0004C10F4096
:1005E00000000020001BB700A0C10F40ACC10F40AD
:1005F0006300050084C00F408CC00F4080C00F40D6
:10060000A4C00F40ACC00F40A0C00F40A8C00F4016
:10061000DE872804C4C00F4070B505462C48006A28
:1006200040F480202A4908620846C06B40F48020CC
:10063000C863002412E02648406B40F4802024491F
:100640004863322000F0DEF82148406B20F480201F
:100650001F494863322000F0D5F8641C47F6FF704C
:100660008442E8D370BD00F045F91A4908600021C2
:10067000194800F01BF9194908601548006A40F054
:100680000050134908620846C06B40F00050C86330
:10069000002412E00E48406B40F000500C494863C3
:1006A000642000F0AFF80A48406B20F00050084981
:1006B0004863642000F0A6F8641C47F6FF7084428B
:1006C000E8D30648006800F021F900BFFEE700000B
:1006D00000C009202400002010160000280000207F
:1006E000064C074D06E0E06840F0010394E807007F
:1006F00098471034AC42F6D3FFF7ECFC201600000C
:100700004016000002E008C8121F08C1002AFAD1F2
:100710007047002001E001C1121F002AFBD1704781
:1007200010B5002A06DA22F00042D21D22F007039B
:10073000102203E0D21C22F003030C2213B19C18F8
:100740008C4201D9012010BD024401448360C0E9FC
:100750000021C91AD018884202D810600246F9E771
:100760000020106010BD000008480068C0010BD5D3
:1007700007480068C00707D005488038006800288F
:1007800002DA04490120087070470000FCED00E027
:10079000800E00E04C0000204FF06042D36F002B31
:1007A000FCD0C36AD367D36F002BFCD0C07840EA7B
:1007B0000120A2F87C0070474FF06041CA6F002A08
:1007C000FCD081F87C00704770B50D46040003D062
:1007D00012B92078012801D0802070BD204600F099
:1007E0003DFA28B12946204600F004F8002070BDEB
:1007F000812070BD10B500F025FBBDE8104000F071
:1008000011BB0000EFF3058109B182207047DFF8CA
:1008100008C000DF70470000D9130000EFF3058027
:1008200008B182207047EFF31480C00703D0DFF8CF
:100830000CC000DF704700F0D9BD0000ED130000D0
:1008400088B0EFF3058010B1822008B07047EFF355
:10085000148010F00301134806D001291BD002298F
:1008600011D0032919D113E008A981F30988007870
:10087000C0070BD05FF0020080F31488BFF34F8FE6
:10088000BFF36F8F09E00078C00706D10320F3E7BC
:100890000078C00701D0FF20D7E7DFF80CC000DFE9
:1008A000D3E70000E81500005D140000EFF30582B7
:1008B0000AB100207047EFF31482064B02F00102E8
:1008C0005B781A4303D0DFF810C000DF704700F0F8
:1008D000F3BD000030000020B9140000DFF80CC0A8
:1008E00000DFDFF80CC000DFFEE700002915000084
:1008F00045150000EFF3058008B100207047DFF8D0
:1009000008C000DF7047000029150000EFF30581E3
:1009100009B182207047DFF808C000DF704700008F
:1009200045150000074801684FF0E02041610021B3
:100930008161072101610448016841F07F41016044
:1009400040177047E415000020ED00E050E8001F5C
:1009500031B10B6840E80032002AF7D108467047F1
:10096000BFF32F8FFAE710B568B161B10B3121F0F9
:100970000302016844680B1A1B1B934205D2084608
:1009800009680029F5D1002010BD3CB12118036889
:10099000C1E90032016001F1080010BD4260083079
:1009A00010BD000070B50D46002812D04FF6FF7143
:1009B000084C884204D222680146104600F06EFAC4
:1009C00020684570044800F0D3F8BDE8704000F09E
:1009D00029BB70BD38000020140800200F4810B556
:1009E0000D4942680E480B680068934204D00A60C3
:1009F000CB88421E1A448A808A8880B282420AD1F9
:100A000000200860054800F0B3F80146BDE810403A
:100A1000024800F067BA10BD500000201408002002
:100A20004800002070B5194DE86800282CD0A88A2D
:100A3000401EA882002621E0A06838B161684160AC
:100A4000606810B1A16881606660A6600F482146A9
:100A5000183800F047FAA08AA8826078042804D1E8
:100A60000B49E08A09880844A08201206070E06890
:100A7000E860E06808B10561E6602661A88A0028A0
:100A800002D1EC68002CD7D170BD00002C080020EA
:100A90004800002070B504000FD00D4DA17801264C
:100AA0002868827891420CD900F038FA286846709C
:100AB0002046BDE8704000F0B5BA064800F058F88E
:100AC000F7E766702146BDE87040024800F00ABAB8
:100AD000380000201408002010B50446008B08439D
:100AE00020836278618B062A18D0052A19D1084222
:100AF00017D001EA0002628388432083204600F079
:100B000038FA01206070628B0821204600F02DFA2F
:100B10002146BDE81040034800F0E4B931EA000284
:100B2000EAD010BD14080020814202D342688A42F4
:100B300001D80120704750E8002F0A6040E80012F9
:100B4000002AF8D10020704768B161B1083900224D
:100B500002E00246006830B18842FAD12AB100684A
:100B60001060002070470120704700214160F8E7C5
:100B70000146406842684A600B780022022B05D08B
:100B8000012B03D0032B01D04260704743680BB1A7
:100B9000996042608260704770B504460020154637
:100BA000207001226270A1706060A060E06020612E
:100BB000A082E0822083608384F82000608C18B9D2
:100BC0000448FFF7C3FEA06229462046BDE87040F6
:100BD00000F01CB89801002008B1082901D20120BA
:100BE00070470144091F002201600A6042601046FC
:100BF0007047000003480021016003490988C18053
:100C00007047000050000020D815000010B5428C3D
:100C1000920803D10F4A1288C2F38D02836A03EB54
:100C20008202530700D5121F403A4FF08073C2E989
:100C30000E1300234FEA030442F823405B1C0E2BE3
:100C4000FAD3C36913624262C162806A02490160D9
:100C500010BD0000D4150000A52E5AE2C18980897C
:100C6000081A7047012202700022427082704260AE
:100C70000281428110398281C1F38F01C1817047A5
:100C80002DE9F041044640680E464FF0000804F19B
:100C90000C05E0B36078012701283DD0022813D06D
:100CA00003285BD10846FFF751FE050056D02046C9
:100CB000FFF75EFF0446294600F054F967702046AE
:100CC00000F057F9214620E02046FFF751FF064685
:100CD000002100F047F92189F06904EB81010861E6
:100CE000D5E85F0F401CC5E8510F0029F8D12089D5
:100CF000401C80B22081E189884201D1A4F808809B
:100D00007770304600F035F93146184800E00CE0C5
:100D1000BDE8F04100F0E6B82046FFF729FF0446A1
:100D20003246102100F021F9C8E7A089E189884204
:100D300016D2208904EB8000C0F81060D5E85F0F60
:100D4000401CC5E8510F0029F8D12089401C80B211
:100D50002081E189884201D1A4F80880BDE8F081B2
:100D6000BDE8F0410320FFF76FBA0000140800202F
:100D7000411C13D00B4A4FF6FE7190420CD800EB89
:100D80004002C2EBC0120848036803EBC202521EC5
:100D9000B2FBF3F0884200D9084670474FF6FF7067
:100DA0007047000000093D00EC15000070B51A48BE
:100DB00001210068417000F0B1F8184D6C7816E020
:100DC00005EBC40148680278E2B1012A1FD000F0A7
:100DD000FDF8E878641C844200D100240F48801C90
:100DE000D0E84F1F491EC0E8421F002AF8D1A8785A
:100DF0000028E5D16C700A48FFF7BAFEBDE87040E4
:100E000000F010B9098989B2FFF766FEE1E7896849
:100E1000FFF736FFDDE7000038000020380700202C
:100E2000140800200548017811B101214170704774
:100E300003494FF0805008607047000040000020D8
:100E400004ED00E0F0B4144A941CD5784FEA020691
:100E5000D4E84F3FAB4202D1BFF32F8F0EE05B1CB3
:100E6000C4E8473F002FF3D1D6E84F3F5C1CAC42AB
:100E700000D10024C6E8474F002FF5D1D4789C421A
:100E800005D902EBC302C2E90101F0BC7047F0BC16
:100E90000220FFF7D9B9000038070020104A10B52A
:100EA000D368ABB113469B8A03E08CB12246A48A77
:100EB0002344D4688B42F8D3C460D0600261C46814
:100EC00004B12061591A8182908A401A908210BD23
:100ED0000024C460D060C91A02619182848210BD6E
:100EE0002C08002030B502780023022A03D0012A02
:100EF00001D0032A00D101238C7800E0104642681B
:100F000012B19578A542F9D24A6041601BB102B195
:100F10009160886030BD0020FBE7000003494A680B
:100F20004260002282604860704700001408002080
:100F300010B5836804462BB9607801280ED1084BA0
:100F400003E09B6818780028FBD0204600F026F8C4
:100F50002146BDE810401846FFF7C4BF10BD000091
:100F600014080020406A01627047406AC0E9081214
:100F7000704710B5016900290ED0C268CA60C36805
:100F800000223BB18B8A848A23448B82C368196117
:100F9000C26000E08A82026110BD0000816839B140
:100FA00042684A604168002901D0806888607047C3
:100FB000054906E04A68824202D1406848607047AD
:100FC00011460029F6D170471408002010B5416879
:100FD00081B1FFF7CDFD0446FFF7CBFF0120607024
:100FE00001462046FFF7BEFF2146BDE810400348FA
:100FF000FFF778BF4188491C418010BD14080020CC
:1010000006480068D0E90910814203D3006804490A
:10101000884202D00120FFF717B97047380000203E
:10102000A52E5AE20749022248604270064A127809
:10103000002A05D006C98A4202D0C078FFF7BCBB9F
:1010400070470000380000204C00002070B5FFF70A
:101050008BFB002004462F4A2F4902E042F8204033
:10106000401C0B889842F9D32C48302201882C4828
:10107000FFF756FB2B48008880B240F000422A4818
:1010800001682A48FFF74CFB2948082201882948B3
:101090000068FFF745FB284DFF20284AE8706C8464
:1010A00000212846FFF778FD25480421017044609F
:1010B00024480170C4600461848223482449056087
:1010C000022068702148047044700978C170FFF7ED
:1010D00091FD2048016841F47F01016000684FF0F4
:1010E0007F4101EA00201B49C0431439B0FA80F067
:1010F0000968C0F10800C1F30221814200DB481CED
:101100001449091F0B686FF08072824063F3170265
:101110000A6070BDBC070020D0150000F415000067
:1011200068000020D4150000F81500009801002088
:101130000C16000008000020E40700204502000013
:10114000140800202C080020380000203807002058
:101150000016000020ED00E010B5FFF7E3FB0949A1
:10116000002808600DDB084AFF21815400F01F02AF
:101170000121914040114FF0E02202EB8000C0F8C5
:10118000001110BD4400002000E400E00B4810B541
:10119000006801214170FFF7C1FEFFF71FFC0848FE
:1011A0000168491C0160FFF73DFC00F0E7F90548C4
:1011B000FFF7DEFCBDE81040FFF734BF3800002029
:1011C0004800002014080020002805D0810702D123
:1011D0000178002900D000207047000030B50C4C89
:1011E0000023626805E015898D4204D81346126811
:1011F000491B002AF7D189B20260018112B1158919
:10120000691A11810BB1186030BD606030BD0000FB
:10121000300000202DE9F0411E46174680460C465E
:1012200011F0FF0F00D14C1C1748FFF78FFB050092
:1012300028D0C4F30F20AF626884E1B2424628464A
:10124000EE61FFF7A9FC01241048114906E000BF38
:1012500000EB840252F8042C22B1641C0A889442E8
:10126000F6D9002400EB840040F8045C0948EC70D7
:10127000007818B101212846FFF78EFA2846FFF7BB
:1012800009FC2046BDE8F08168000020BC07002072
:10129000D01500004C0000202DE9F041284C274FCC
:1012A000284E2168002510B1CA78824220D14D70A5
:1012B000FEF721FF21684862FFF7A2FE2068C1788F
:1012C00006EB810141F8045C816A1F48FFF72CFCA2
:1012D00020688562397811B10021FFF75DFA1B485B
:1012E0002168FFF721FC00202560FFF7D3FB1FE0FA
:1012F0001749098888421ED806EB800656F8044C28
:10130000CCB12046FFF74AFE2046FFF732FE46F8F2
:10131000045C0D48A16AFFF707FCA562387818B194
:1013200000212046FFF738FA21460848FFF7FCFB6A
:101330000020BDE8F081FF20FBE700004C0000200A
:1013400038000020BC070020980100206800002021
:10135000D015000070B5184D70B1184A128890422F
:101360001AD8174A02EB800050F8044CA4B1A170BF
:101370002868A04202D011E02868817011484068B6
:101380008078884215D90F482968FFF7ABFD296896
:101390000120487000200AE0FF2070BD2046FFF7C2
:1013A000C7FD6078012804D10648FFF7E1FBFFF78D
:1013B00071FB002070BD000038000020D015000037
:1013C000BC0700201408002002480068002800D054
:1013D000C07870473800002010B5002805D0FFF70E
:1013E000C7FC80B2FEF786FF402010BD10B5134C3D
:1013F000207860B91248400705D1124801681048AA
:10140000FFF7EAFB08B1852010BDFFF71FFE0E496C
:10141000FF2009688870207858B900210B4800F037
:1014200039F80B49086000210A4800F045F80A49DC
:10143000086001202070002010BD00003000002056
:1014400058060020FC15000038000020041600009B
:1014500020000020580000201C00002010B50B4C7C
:10146000607808B1002010BD00210846FFF772FF28
:1014700007490868406A203080F309880020086026
:10148000FFF76AFE01206070ECE7000030000020EA
:101490003800002010B5040005D0216819B160683B
:1014A00008B102780AB1002010BD8900103189B25C
:1014B000FFF7D8FB606810BD70B50E4604002BD056
:1014C000206848B3B4F9040010F1030F24DB0328AB
:1014D00022DCE16829B11148FFF745FA05001BD06D
:1014E00000E00025B4F90400E168001D40EA012194
:1014F00033462A462068FFF78DFE40B1084901EBCC
:101500008000084950F8040C426A516370BD1DB157
:1015100029460248FFF718FB002070BD580600203E
:10152000BC070020DD08000010B5FFF74DFF0028C4
:1015300004D0034901EB800050F8040C10BD0000FA
:10154000BC07002010B5FFF73FFE18B1418C19B160
:10155000846A02E0802010BD0024C078FFF79CFE62
:10156000FF2806D01CB121460348FFF7EDFA002002
:1015700010BD812010BD0000580600202DE9F0416B
:10158000114E7468002C18D02089104F401E208105
:101590004FF001080EE025462468746000222946B9
:1015A0003868FFF711F96879012808D085F80480B8
:1015B000002C02D020890028EDD0BDE8F081698997
:1015C0002846FFF70BFEF3E7300000202000002044
:1015D00006000000C80001010500010000E1F5055A
:1015E000640000009F86010000000000E803000086
:1015F000000000002C010000C0040000E00000001A
:101600001000000000000000D407002000000000CF
:1016100019060000000000000100000000000000AA
:1016200040160000000000205800000004070000E1
:101630009816000058000020F00A00001207000071
:1016400000E1F50500000000000000006706000052
:101650000000000001000000C800000000000000C1
:10166000000000000000000000000000000000007A
:10167000000000000000000000000000000000006A
:10168000000000000000000000000000000000005A
:08169000000000000000000052
:04000005000000CD2A
:00000001FF
